{
  "_format": "hh-sol-artifact-1",
  "contractName": "SmaartContract",
  "sourceName": "contracts/SmartContract.sol",
  "abi": [
    {
      "inputs": [],
      "stateMutability": "nonpayable",
      "type": "constructor"
    },
    {
      "inputs": [
        {
          "internalType": "address",
          "name": "verifier",
          "type": "address"
        },
        {
          "internalType": "string",
          "name": "cid",
          "type": "string"
        },
        {
          "internalType": "string",
          "name": "name",
          "type": "string"
        },
        {
          "internalType": "string",
          "name": "sex",
          "type": "string"
        },
        {
          "internalType": "string",
          "name": "dob",
          "type": "string"
        },
        {
          "internalType": "uint256",
          "name": "mobile",
          "type": "uint256"
        },
        {
          "internalType": "string",
          "name": "email",
          "type": "string"
        },
        {
          "internalType": "string",
          "name": "college",
          "type": "string"
        },
        {
          "internalType": "int256",
          "name": "isOver18",
          "type": "int256"
        },
        {
          "internalType": "int256",
          "name": "isCollegeStudent",
          "type": "int256"
        }
      ],
      "name": "addVReq",
      "outputs": [],
      "stateMutability": "nonpayable",
      "type": "function"
    },
    {
      "inputs": [
        {
          "internalType": "string",
          "name": "verifier",
          "type": "string"
        }
      ],
      "name": "getVerifierAddress",
      "outputs": [
        {
          "internalType": "string",
          "name": "verifierAddress",
          "type": "string"
        }
      ],
      "stateMutability": "view",
      "type": "function"
    },
    {
      "inputs": [
        {
          "internalType": "string",
          "name": "verifierAddress",
          "type": "string"
        }
      ],
      "name": "getVerifierName",
      "outputs": [
        {
          "internalType": "string",
          "name": "verifierName",
          "type": "string"
        }
      ],
      "stateMutability": "view",
      "type": "function"
    },
    {
      "inputs": [
        {
          "internalType": "address",
          "name": "org",
          "type": "address"
        },
        {
          "internalType": "bool",
          "name": "name",
          "type": "bool"
        },
        {
          "internalType": "bool",
          "name": "sex",
          "type": "bool"
        },
        {
          "internalType": "bool",
          "name": "dob",
          "type": "bool"
        },
        {
          "internalType": "bool",
          "name": "mobile",
          "type": "bool"
        },
        {
          "internalType": "bool",
          "name": "email",
          "type": "bool"
        },
        {
          "internalType": "bool",
          "name": "college",
          "type": "bool"
        },
        {
          "internalType": "bool",
          "name": "isOver18",
          "type": "bool"
        },
        {
          "internalType": "bool",
          "name": "isCollegeStudent",
          "type": "bool"
        }
      ],
      "name": "giveAccess",
      "outputs": [],
      "stateMutability": "nonpayable",
      "type": "function"
    },
    {
      "inputs": [],
      "name": "showUserInfo",
      "outputs": [
        {
          "internalType": "string",
          "name": "name",
          "type": "string"
        },
        {
          "internalType": "string",
          "name": "sex",
          "type": "string"
        },
        {
          "internalType": "string",
          "name": "dob",
          "type": "string"
        },
        {
          "internalType": "uint256",
          "name": "mobile",
          "type": "uint256"
        },
        {
          "internalType": "string",
          "name": "email",
          "type": "string"
        },
        {
          "internalType": "string",
          "name": "college",
          "type": "string"
        },
        {
          "internalType": "int256",
          "name": "isOver18",
          "type": "int256"
        },
        {
          "internalType": "int256",
          "name": "isCollegeStudent",
          "type": "int256"
        }
      ],
      "stateMutability": "view",
      "type": "function"
    },
    {
      "inputs": [
        {
          "internalType": "address",
          "name": "user",
          "type": "address"
        }
      ],
      "name": "showUserInfoBoolsByOrg",
      "outputs": [
        {
          "internalType": "int256",
          "name": "isOver18",
          "type": "int256"
        },
        {
          "internalType": "int256",
          "name": "isCollegeStudent",
          "type": "int256"
        }
      ],
      "stateMutability": "view",
      "type": "function"
    },
    {
      "inputs": [
        {
          "internalType": "address",
          "name": "user",
          "type": "address"
        }
      ],
      "name": "showUserInfoByOrg",
      "outputs": [
        {
          "internalType": "string",
          "name": "name",
          "type": "string"
        },
        {
          "internalType": "string",
          "name": "sex",
          "type": "string"
        },
        {
          "internalType": "string",
          "name": "dob",
          "type": "string"
        },
        {
          "internalType": "uint256",
          "name": "mobile",
          "type": "uint256"
        },
        {
          "internalType": "string",
          "name": "email",
          "type": "string"
        },
        {
          "internalType": "string",
          "name": "college",
          "type": "string"
        }
      ],
      "stateMutability": "view",
      "type": "function"
    },
    {
      "inputs": [
        {
          "internalType": "uint256",
          "name": "index",
          "type": "uint256"
        }
      ],
      "name": "showUserVerificationReqList",
      "outputs": [
        {
          "internalType": "address",
          "name": "verifier",
          "type": "address"
        },
        {
          "internalType": "int256",
          "name": "status",
          "type": "int256"
        }
      ],
      "stateMutability": "view",
      "type": "function"
    },
    {
      "inputs": [],
      "name": "showUserVerificationReqListLength",
      "outputs": [
        {
          "internalType": "uint256",
          "name": "",
          "type": "uint256"
        }
      ],
      "stateMutability": "view",
      "type": "function"
    },
    {
      "inputs": [
        {
          "internalType": "uint256",
          "name": "index",
          "type": "uint256"
        }
      ],
      "name": "showVerifierVerificationReqList",
      "outputs": [
        {
          "internalType": "string",
          "name": "cid",
          "type": "string"
        },
        {
          "internalType": "address",
          "name": "user",
          "type": "address"
        },
        {
          "internalType": "int256",
          "name": "status",
          "type": "int256"
        },
        {
          "internalType": "uint256",
          "name": "metaIndex",
          "type": "uint256"
        }
      ],
      "stateMutability": "view",
      "type": "function"
    },
    {
      "inputs": [],
      "name": "showVerifierVerificationReqListLength",
      "outputs": [
        {
          "internalType": "uint256",
          "name": "",
          "type": "uint256"
        }
      ],
      "stateMutability": "view",
      "type": "function"
    },
    {
      "inputs": [
        {
          "internalType": "uint256",
          "name": "index",
          "type": "uint256"
        }
      ],
      "name": "showVerifierVerificationReqScopeBoolsList",
      "outputs": [
        {
          "internalType": "int256",
          "name": "isOver18",
          "type": "int256"
        },
        {
          "internalType": "int256",
          "name": "isCollegeStudent",
          "type": "int256"
        }
      ],
      "stateMutability": "view",
      "type": "function"
    },
    {
      "inputs": [
        {
          "internalType": "uint256",
          "name": "index",
          "type": "uint256"
        }
      ],
      "name": "showVerifierVerificationReqScopeList",
      "outputs": [
        {
          "internalType": "string",
          "name": "name",
          "type": "string"
        },
        {
          "internalType": "string",
          "name": "sex",
          "type": "string"
        },
        {
          "internalType": "string",
          "name": "dob",
          "type": "string"
        },
        {
          "internalType": "uint256",
          "name": "mobile",
          "type": "uint256"
        },
        {
          "internalType": "string",
          "name": "email",
          "type": "string"
        },
        {
          "internalType": "string",
          "name": "college",
          "type": "string"
        }
      ],
      "stateMutability": "view",
      "type": "function"
    },
    {
      "inputs": [
        {
          "internalType": "address",
          "name": "user",
          "type": "address"
        },
        {
          "internalType": "uint256",
          "name": "index",
          "type": "uint256"
        },
        {
          "internalType": "bool",
          "name": "decision",
          "type": "bool"
        }
      ],
      "name": "verifyReq",
      "outputs": [],
      "stateMutability": "nonpayable",
      "type": "function"
    }
  ],
  "bytecode": "0x60806040523480156200001157600080fd5b50600080546001600160a01b03191633179055604080518082018252600381526252544f60e81b6020820152905160059062000084907f203078426631613844336333426639443266333832313532383735383038393581526a333738456530336137323360a81b6020820152602b0190565b90815260200160405180910390209081620000a091906200032b565b506040518060600160405280602a815260200162002b44602a9139604080516252544f60e81b815260066003820152905190819003602301902090620000e790826200032b565b50604051806040016040528060078152602001664d4e4e4954204160c81b81525060056040516200014e907f30784663323943303135444334424138636642433445386664324630373439618152693539383336356266313160b01b6020820152602a0190565b908152602001604051809103902090816200016a91906200032b565b506040518060600160405280602a815260200162002b1a602a913960408051664d4e4e4954204160c81b815260066007820152905190819003602701902090620001b590826200032b565b5060405180604001604052806005815260200164554944414960d81b81525060056040516200021a907f30783834374532643337374534416545663334623962444445386336343231448152690303130643036393436360b41b6020820152602a0190565b908152602001604051809103902090816200023691906200032b565b506040518060600160405280602a815260200162002b6e602a91396040805164554944414960d81b8152600660058201529051908190036025019020906200027f90826200032b565b50620003f7565b634e487b7160e01b600052604160045260246000fd5b600181811c90821680620002b157607f821691505b602082108103620002d257634e487b7160e01b600052602260045260246000fd5b50919050565b601f8211156200032657600081815260208120601f850160051c81016020861015620003015750805b601f850160051c820191505b8181101562000322578281556001016200030d565b5050505b505050565b81516001600160401b0381111562000347576200034762000286565b6200035f816200035884546200029c565b84620002d8565b602080601f8311600181146200039757600084156200037e5750858301515b600019600386901b1c1916600185901b17855562000322565b600085815260208120601f198616915b82811015620003c857888601518255948401946001909101908401620003a7565b5085821015620003e75787850151600019600388901b60f8161c191681555b5050505050600190811b01905550565b61271380620004076000396000f3fe608060405234801561001057600080fd5b50600436106100e95760003560e01c80637a5f040e1161008c578063b3c122bf11610066578063b3c122bf1461021b578063b6c344741461025a578063e7ce19b51461026d578063f9817fc21461029257600080fd5b80637a5f040e146101d0578063869a2d00146101e357806392c9cc39146101f857600080fd5b806324a26995116100c857806324a269951461016257806325d08e2514610182578063547fa869146101955780635e0243e6146101b157600080fd5b806297a913146100ee578063161a8a151461011b578063245a42261461014d575b600080fd5b6101016100fc366004611fa6565b6102a5565b604080519283526020830191909152015b60405180910390f35b61012e610129366004611fa6565b61031d565b604080516001600160a01b039093168352602083019190915201610112565b61016061015b36600461207e565b61039a565b005b6101756101703660046121a4565b61057f565b6040516101129190612231565b61016061019036600461225b565b61062f565b61019d611265565b604051610112989796959493929190612297565b336000908152600260205260409020545b604051908152602001610112565b6101756101de3660046121a4565b611584565b336000908152600360205260409020546101c2565b61020b610206366004611fa6565b611596565b6040516101129493929190612319565b610101610229366004612351565b6001600160a01b03166000908152600460209081526040808320338452909152902060068101546007909101549091565b61016061026836600461236c565b61172a565b61028061027b366004612351565b611af5565b60405161011296959493929190612414565b6102806102a0366004611fa6565b611e11565b3360009081526002602052604081208054829190849081106102c9576102c9612488565b600091825260208083206008600c909302019190910154338352600290915260409091208054859081106102ff576102ff612488565b90600052602060002090600c02016002016007015491509150915091565b33600090815260036020526040812080548291908490811061034157610341612488565b600091825260208083206002909202909101543383526003909152604090912080546001600160a01b03909216918590811061037f5761037f612488565b90600052602060002090600202016001015491509150915091565b6001600160a01b038a166000908152600260209081526040808320815160a080820184528e8252338286018190528451610100810186528f81528087018f90528086018e905260608082018e905260808083018e90529382018c905260c082018b905260e082018a905284870191909152830187905286526003855292852054928101929092528054600181018255908452919092208251600c909202019081906104459082612526565b5060208201516001820180546001600160a01b0319166001600160a01b0390921691909117905560408201518051600283019081906104849082612526565b50602082015160018201906104999082612526565b50604082015160028201906104ae9082612526565b5060608201516003820155608082015160048201906104cd9082612526565b5060a082015160058201906104e29082612526565b5060c0820151600682015560e0909101516007909101556060820151600a820155608090910151600b90910155505033600090815260036020908152604080832081518083019092526001600160a01b039b8c168252818301848152815460018082018455928652939094209151600290930290910180546001600160a01b03191692909b16919091178a55905198019790975550505050505050565b606060068260405161059191906125e6565b908152602001604051809103902080546105aa9061249e565b80601f01602080910402602001604051908101604052809291908181526020018280546105d69061249e565b80156106235780601f106105f857610100808354040283529160200191610623565b820191906000526020600020905b81548152906001019060200180831161060657829003601f168201915b50505050509050919050565b8015610dee576001600160a01b038316600090815260026020526040812080548490811061065f5761065f612488565b90600052602060002090600c02016040518060a00160405290816000820180546106889061249e565b80601f01602080910402602001604051908101604052809291908181526020018280546106b49061249e565b80156107015780601f106106d657610100808354040283529160200191610701565b820191906000526020600020905b8154815290600101906020018083116106e457829003601f168201915b505050918352505060018201546001600160a01b03166020820152604080516101008101825260028401805492909301929091829082906107419061249e565b80601f016020809104026020016040519081016040528092919081815260200182805461076d9061249e565b80156107ba5780601f1061078f576101008083540402835291602001916107ba565b820191906000526020600020905b81548152906001019060200180831161079d57829003601f168201915b505050505081526020016001820180546107d39061249e565b80601f01602080910402602001604051908101604052809291908181526020018280546107ff9061249e565b801561084c5780601f106108215761010080835404028352916020019161084c565b820191906000526020600020905b81548152906001019060200180831161082f57829003601f168201915b505050505081526020016002820180546108659061249e565b80601f01602080910402602001604051908101604052809291908181526020018280546108919061249e565b80156108de5780601f106108b3576101008083540402835291602001916108de565b820191906000526020600020905b8154815290600101906020018083116108c157829003601f168201915b50505050508152602001600382015481526020016004820180546109019061249e565b80601f016020809104026020016040519081016040528092919081815260200182805461092d9061249e565b801561097a5780601f1061094f5761010080835404028352916020019161097a565b820191906000526020600020905b81548152906001019060200180831161095d57829003601f168201915b505050505081526020016005820180546109939061249e565b80601f01602080910402602001604051908101604052809291908181526020018280546109bf9061249e565b8015610a0c5780601f106109e157610100808354040283529160200191610a0c565b820191906000526020600020905b8154815290600101906020018083116109ef57829003601f168201915b50505050508152602001600682015481526020016007820154815250508152602001600a8201548152602001600b820154815250509050600160026000866001600160a01b03166001600160a01b031681526020019081526020016000208481548110610a7b57610a7b612488565b90600052602060002090600c0201600a018190555060016003600083602001516001600160a01b03166001600160a01b03168152602001908152602001600020826080015181548110610ad057610ad0612488565b6000918252602080832060016002909302019190910192909255604080519182529181018083528151902083830151519092610b0c92016125e6565b6040516020818303038152906040528051906020012014610b5857604080820151516020808401516001600160a01b0316600090815260019091529190912090610b569082612526565b505b604080516000815260208082018084528251902084840151909101519092610b8092016125e6565b6040516020818303038152906040528051906020012014610bd157604080820151602090810151818401516001600160a01b03166000908152600192839052929092200190610bcf9082612526565b505b60408051600081526020810180835281519020838301518301519092610bf792016125e6565b6040516020818303038152906040528051906020012014610c48576040808201518101516020808401516001600160a01b0316600090815260019091529190912060020190610c469082612526565b505b60408101516060015115610c8257604080820151606001516020808401516001600160a01b03166000908152600190915291909120600301555b6040805160008152602081018083528151902083830151608001519092610ca992016125e6565b6040516020818303038152906040528051906020012014610cfb57604080820151608001516020808401516001600160a01b0316600090815260019091529190912060040190610cf99082612526565b505b604080516000815260208101808352815190208383015160a001519092610d2292016125e6565b6040516020818303038152906040528051906020012014610d745760408082015160a001516020808401516001600160a01b0316600090815260019091529190912060050190610d729082612526565b505b604081015160c0015115610dae5760408082015160c001516020808401516001600160a01b03166000908152600190915291909120600601555b604081015160e0015115610de85760408082015160e001516020808401516001600160a01b03166000908152600190915291909120600701555b50505050565b6001600160a01b0383166000908152600260205260408120805484908110610e1857610e18612488565b90600052602060002090600c02016040518060a0016040529081600082018054610e419061249e565b80601f0160208091040260200160405190810160405280929190818152602001828054610e6d9061249e565b8015610eba5780601f10610e8f57610100808354040283529160200191610eba565b820191906000526020600020905b815481529060010190602001808311610e9d57829003601f168201915b505050918352505060018201546001600160a01b0316602082015260408051610100810182526002840180549290930192909182908290610efa9061249e565b80601f0160208091040260200160405190810160405280929190818152602001828054610f269061249e565b8015610f735780601f10610f4857610100808354040283529160200191610f73565b820191906000526020600020905b815481529060010190602001808311610f5657829003601f168201915b50505050508152602001600182018054610f8c9061249e565b80601f0160208091040260200160405190810160405280929190818152602001828054610fb89061249e565b80156110055780601f10610fda57610100808354040283529160200191611005565b820191906000526020600020905b815481529060010190602001808311610fe857829003601f168201915b5050505050815260200160028201805461101e9061249e565b80601f016020809104026020016040519081016040528092919081815260200182805461104a9061249e565b80156110975780601f1061106c57610100808354040283529160200191611097565b820191906000526020600020905b81548152906001019060200180831161107a57829003601f168201915b50505050508152602001600382015481526020016004820180546110ba9061249e565b80601f01602080910402602001604051908101604052809291908181526020018280546110e69061249e565b80156111335780601f1061110857610100808354040283529160200191611133565b820191906000526020600020905b81548152906001019060200180831161111657829003601f168201915b5050505050815260200160058201805461114c9061249e565b80601f01602080910402602001604051908101604052809291908181526020018280546111789061249e565b80156111c55780601f1061119a576101008083540402835291602001916111c5565b820191906000526020600020905b8154815290600101906020018083116111a857829003601f168201915b50505050508152602001600682015481526020016007820154815250508152602001600a8201548152602001600b8201548152505090506000198160600181815250506000196003600083602001516001600160a01b03166001600160a01b0316815260200190815260200160002082608001518154811061124957611249612488565b906000526020600020906002020160010181905550505b505050565b336000908152600160208190526040822060038101546006820154600783015483546060968796879691958795869588958695948501936002860193909260048701926005880192919088906112ba9061249e565b80601f01602080910402602001604051908101604052809291908181526020018280546112e69061249e565b80156113335780601f1061130857610100808354040283529160200191611333565b820191906000526020600020905b81548152906001019060200180831161131657829003601f168201915b505050505097508680546113469061249e565b80601f01602080910402602001604051908101604052809291908181526020018280546113729061249e565b80156113bf5780601f10611394576101008083540402835291602001916113bf565b820191906000526020600020905b8154815290600101906020018083116113a257829003601f168201915b505050505096508580546113d29061249e565b80601f01602080910402602001604051908101604052809291908181526020018280546113fe9061249e565b801561144b5780601f106114205761010080835404028352916020019161144b565b820191906000526020600020905b81548152906001019060200180831161142e57829003601f168201915b5050505050955083805461145e9061249e565b80601f016020809104026020016040519081016040528092919081815260200182805461148a9061249e565b80156114d75780601f106114ac576101008083540402835291602001916114d7565b820191906000526020600020905b8154815290600101906020018083116114ba57829003601f168201915b505050505093508280546114ea9061249e565b80601f01602080910402602001604051908101604052809291908181526020018280546115169061249e565b80156115635780601f1061153857610100808354040283529160200191611563565b820191906000526020600020905b81548152906001019060200180831161154657829003601f168201915b50505050509250975097509750975097509750975097509091929394959697565b606060058260405161059191906125e6565b3360009081526002602052604081208054606092918291829190869081106115c0576115c0612488565b60009182526020808320338452600290915260409092208054600c9092029092019190879081106115f3576115f3612488565b600091825260208083206001600c9093020191909101543383526002909152604090912080546001600160a01b03909216918890811061163557611635612488565b90600052602060002090600c0201600a015460026000336001600160a01b03166001600160a01b03168152602001908152602001600020888154811061167d5761167d612488565b90600052602060002090600c0201600b015483805461169b9061249e565b80601f01602080910402602001604051908101604052809291908181526020018280546116c79061249e565b80156117145780601f106116e957610100808354040283529160200191611714565b820191906000526020600020905b8154815290600101906020018083116116f757829003601f168201915b5050505050935093509350935093509193509193565b871561176c57336000908152600160209081526040808320600483528184206001600160a01b038e168552909252909120906117669082612602565b506117a6565b60408051602080820183526000808352338152600482528381206001600160a01b038e16825290915291909120906117a49082612526565b505b86156117eb57336000908152600160208181526040808420600483528185206001600160a01b038f1686529092529092208101916117e5910182612602565b50611828565b60408051602080820183526000808352338152600482528381206001600160a01b038e16825290915291909120600101906118269082612526565b505b851561187057336000908152600160209081526040808320600483528184206001600160a01b038e16855290925290912060029081019161186a910182612602565b506118ad565b60408051602080820183526000808352338152600482528381206001600160a01b038e16825290915291909120600201906118ab9082612526565b505b84156118ec57336000908152600160209081526040808320600390810154600484528285206001600160a01b038f168652909352922090910155611914565b3360009081526004602090815260408083206001600160a01b038d1684529091528120600301555b83156119595733600090815260016020908152604080832060048084528285206001600160a01b038f1686529093529220810191611953910182612602565b50611997565b6040805160208082018352600080835233815260048083528482206001600160a01b038f16835290925292909220909101906119959082612526565b505b82156119df57336000908152600160209081526040808320600483528184206001600160a01b038e1685529092529091206005908101916119d9910182612602565b50611a1c565b60408051602080820183526000808352338152600482528381206001600160a01b038e1682529091529190912060050190611a1a9082612526565b505b8115611a5b57336000908152600160209081526040808320600690810154600484528285206001600160a01b038f168652909352922090910155611a83565b3360009081526004602090815260408083206001600160a01b038d1684529091528120600601555b8015611ac257336000908152600160209081526040808320600790810154600484528285206001600160a01b038f168652909352922090910155611aea565b3360009081526004602090815260408083206001600160a01b038d1684529091528120600701555b505050505050505050565b6001600160a01b0381166000908152600460208181526040808420338552909152822060038101548154606094859485949193859384939260018401926002850192909185019060058601908690611b4c9061249e565b80601f0160208091040260200160405190810160405280929190818152602001828054611b789061249e565b8015611bc55780601f10611b9a57610100808354040283529160200191611bc5565b820191906000526020600020905b815481529060010190602001808311611ba857829003601f168201915b50505050509550848054611bd89061249e565b80601f0160208091040260200160405190810160405280929190818152602001828054611c049061249e565b8015611c515780601f10611c2657610100808354040283529160200191611c51565b820191906000526020600020905b815481529060010190602001808311611c3457829003601f168201915b50505050509450838054611c649061249e565b80601f0160208091040260200160405190810160405280929190818152602001828054611c909061249e565b8015611cdd5780601f10611cb257610100808354040283529160200191611cdd565b820191906000526020600020905b815481529060010190602001808311611cc057829003601f168201915b50505050509350818054611cf09061249e565b80601f0160208091040260200160405190810160405280929190818152602001828054611d1c9061249e565b8015611d695780601f10611d3e57610100808354040283529160200191611d69565b820191906000526020600020905b815481529060010190602001808311611d4c57829003601f168201915b50505050509150808054611d7c9061249e565b80601f0160208091040260200160405190810160405280929190818152602001828054611da89061249e565b8015611df55780601f10611dca57610100808354040283529160200191611df5565b820191906000526020600020905b815481529060010190602001808311611dd857829003601f168201915b5050505050905095509550955095509550955091939550919395565b3360009081526002602052604081208054606092839283928391829188908110611e3d57611e3d612488565b6000918252602080832033845260029182905260409093208054600c90930290930101919089908110611e7257611e72612488565b90600052602060002090600c020160020160010160026000336001600160a01b03166001600160a01b031681526020019081526020016000208981548110611ebc57611ebc612488565b90600052602060002090600c020160020160020160026000336001600160a01b03166001600160a01b031681526020019081526020016000208a81548110611f0657611f06612488565b600091825260208083206005600c9093020191909101543383526002909152604090912080548c908110611f3c57611f3c612488565b90600052602060002090600c020160020160040160026000336001600160a01b03166001600160a01b031681526020019081526020016000208c81548110611f8657611f86612488565b90600052602060002090600c0201600201600501858054611b4c9061249e565b600060208284031215611fb857600080fd5b5035919050565b80356001600160a01b0381168114611fd657600080fd5b919050565b634e487b7160e01b600052604160045260246000fd5b600082601f83011261200257600080fd5b813567ffffffffffffffff8082111561201d5761201d611fdb565b604051601f8301601f19908116603f0116810190828211818310171561204557612045611fdb565b8160405283815286602085880101111561205e57600080fd5b836020870160208301376000602085830101528094505050505092915050565b6000806000806000806000806000806101408b8d03121561209e57600080fd5b6120a78b611fbf565b995060208b013567ffffffffffffffff808211156120c457600080fd5b6120d08e838f01611ff1565b9a5060408d01359150808211156120e657600080fd5b6120f28e838f01611ff1565b995060608d013591508082111561210857600080fd5b6121148e838f01611ff1565b985060808d013591508082111561212a57600080fd5b6121368e838f01611ff1565b975060a08d0135965060c08d013591508082111561215357600080fd5b61215f8e838f01611ff1565b955060e08d013591508082111561217557600080fd5b506121828d828e01611ff1565b9350506101008b013591506101208b013590509295989b9194979a5092959850565b6000602082840312156121b657600080fd5b813567ffffffffffffffff8111156121cd57600080fd5b6121d984828501611ff1565b949350505050565b60005b838110156121fc5781810151838201526020016121e4565b50506000910152565b6000815180845261221d8160208601602086016121e1565b601f01601f19169290920160200192915050565b6020815260006122446020830184612205565b9392505050565b80358015158114611fd657600080fd5b60008060006060848603121561227057600080fd5b61227984611fbf565b92506020840135915061228e6040850161224b565b90509250925092565b60006101008083526122ab8184018c612205565b905082810360208401526122bf818b612205565b905082810360408401526122d3818a612205565b905087606084015282810360808401526122ed8188612205565b905082810360a08401526123018187612205565b60c0840195909552505060e001529695505050505050565b60808152600061232c6080830187612205565b6001600160a01b03959095166020830152506040810192909252606090910152919050565b60006020828403121561236357600080fd5b61224482611fbf565b60008060008060008060008060006101208a8c03121561238b57600080fd5b6123948a611fbf565b98506123a260208b0161224b565b97506123b060408b0161224b565b96506123be60608b0161224b565b95506123cc60808b0161224b565b94506123da60a08b0161224b565b93506123e860c08b0161224b565b92506123f660e08b0161224b565b91506124056101008b0161224b565b90509295985092959850929598565b60c08152600061242760c0830189612205565b82810360208401526124398189612205565b9050828103604084015261244d8188612205565b905085606084015282810360808401526124678186612205565b905082810360a084015261247b8185612205565b9998505050505050505050565b634e487b7160e01b600052603260045260246000fd5b600181811c908216806124b257607f821691505b6020821081036124d257634e487b7160e01b600052602260045260246000fd5b50919050565b601f82111561126057600081815260208120601f850160051c810160208610156124ff5750805b601f850160051c820191505b8181101561251e5782815560010161250b565b505050505050565b815167ffffffffffffffff81111561254057612540611fdb565b6125548161254e845461249e565b846124d8565b602080601f83116001811461258957600084156125715750858301515b600019600386901b1c1916600185901b17855561251e565b600085815260208120601f198616915b828110156125b857888601518255948401946001909101908401612599565b50858210156125d65787850151600019600388901b60f8161c191681555b5050505050600190811b01905550565b600082516125f88184602087016121e1565b9190910192915050565b81810361260d575050565b612617825461249e565b67ffffffffffffffff81111561262f5761262f611fdb565b61263d8161254e845461249e565b6000601f82116001811461267157600083156126595750848201545b600019600385901b1c1916600184901b1784556126d6565b600085815260209020601f19841690600086815260209020845b838110156126ab578286015482556001958601959091019060200161268b565b50858310156126c95781850154600019600388901b60f8161c191681555b50505060018360011b0184555b505050505056fea264697066735822122037afeedec06b35173396da9e533d389b17533132037f0e825565a30a12d5377b64736f6c63430008110033307846633239433031354443344241386366424334453866643246303734396135393833363562663131307842663161384433633342663944326633383231353238373538303839353337384565303361373233307838343745326433373745344165456633346239624444453863363432314430313064303639343630",
  "linkReferences": {},
  "deployedLinkReferences": {}
}